:040800000CEF04F005
:10080800FACF24F1FBCF25F1E9CF26F183ED0DF0E6
:1008180000EE78F03C0EF66E100EF76E10EE0AF051
:1008280029EC04F000EE00F010EE78F022EC04F071
:10083800000EF86E100EF76E23EF08F0EE6AE55022
:10084800E150FCE1E250FAE112000900F5CFEEFFB9
:0C085800E550E150FAE1E250F8E1120036
:101000000020202020202020202020202020202000
:1010100020005052452D495352204F4B0053544508
:10102000503A200042504D3A200052454144590068
:101030004C454E3A20005350513A00007800780059
:10104000E1ACFF0110020101016F0F0EC16E010141
:101050000151000E926E000E936E000E946E000E03
:10106000956E000E966E0101016F000E01010101E7
:10107000036F01010151C8EC0EF00101016F000E78
:1010800001010101046F010101510101026F000E14
:1010900001010101036F0101025137EC10F02A0E2A
:1010A00001010101036F100E0101046F2CEC12F01D
:1010B0000101016F000E01010101046F01010151E5
:1010C0000101026F010E01010101036F01010251D3
:1010D00037EC10F0120E01010101036F100E010137
:1010E000046F2CEC12F0F40E01010101076F010EE8
:1010F0000101086F79EC10F097EC12F0B9EC12F0E6
:10110000080E00010001806101D001D004D0080E5A
:1011100000010001806F200E00010001806501D0F8
:1011200001D004D0200E00010001806F31EC0FF0DF
:1011300092EC0FF0F28CF28E0101016F000E0101B2
:101140000101046F010101510101026F010E010152
:101150000101036F0101025137EC10F0010E010192
:101160000101036F100E0101046F2CEC12F001015C
:10117000016F000E01010101046F01010151010124
:10118000026F000E01010101036F0101025137ECF2
:1011900010F01D0E01010101036F100E0101046F1B
:1011A0002CEC12F00101016F090E01010101046F25
:1011B000010101510101026F000E01010101036FE4
:1011C0000101025137EC10F0300E01010101036FF3
:1011D000100E0101046F2CEC12F00101016F000EE2
:1011E00001010101046F010101510101026F010EB2
:1011F00001010101036F0101025137EC10F0240ECF
:1012000001010101036F100E0101046F2CEC12F0BB
:101210000101016F090E01010101046F010101517A
:101220000101026F010E01010101036F0101025171
:1012300037EC10F0360E01010101036F100E0101B1
:10124000046F2CEC12F007C000F101010101005104
:101250007E18D8B401D001D0C1D000C17EF0010108
:10126000016F050E01010101046F0101015101012E
:10127000026F000E01010101036F0101025137EC01
:1012800010F00101016F000E01010101086F010161
:1012900001510101026F020E01010101076F0101FD
:1012A000025101010101005101010101036F01011E
:1012B000046B0101056B0101066BFBEC0BF00101F6
:1012C000016F0D0E01010101046F010101510101C6
:1012D000026F000E01010101036F0101025137ECA1
:1012E00010F00101016F000E01010101086F010101
:1012F00001510101026F020E01010101076F01019D
:10130000025100010001805101010101036F01013F
:10131000046B0101056B0101066BFBEC0BF0010195
:10132000016F040E01010101046F0101015101016E
:10133000026F010E01010101036F0101025137EC3F
:1013400010F00101016F000E01010101086F0101A0
:1013500001510101026F030E01010101076F01013B
:101360000251010178C003F1010179C004F10101CA
:101370000101056B0101066BFBEC0BF00101016F34
:101380000D0E01010101046F010101510101026F04
:10139000010E01010101036F0101025137EC10F050
:1013A0000101016F000E01010101086F01010151EE
:1013B0000101026F010E01010101076F01010251DC
:1013C00000010001815101010101036F0101046B62
:1013D0000101056B0101066BFBEC0BF034D70CEF40
:1013E00004F0000E01010101336F000E0101346FA2
:1013F000010E7C140101356F000E7D140101366F62
:101400000101351F361F354B362B000E01013515F6
:101410000101376FB40E010136150101386FD89004
:101420007D3001013A6F7C300101396F0101375184
:10143000010139197C6E0101385101013A197D6EA3
:10144000010101013169010132697CA001D001D0A3
:1014500007D0010E01010101316F000E0101326F51
:1014600003500210D8B401D001D051D0055004105F
:10147000D8A401D001D010D07AC004F07BC005F010
:101480007F6CB40E7A5C000E7B58D8B001D001D0CE
:1014900002D07A4A7B2A03D00406D8A0050602C0EF
:1014A00035F103C036F1D890010136333533D89089
:1014B00001013633353335C13DF136C13EF17F5040
:1014C000010101013B6F01013C6B01013BBF3C0786
:1014D000A4EC11F0010101013B510101010133278D
:1014E000010101013C51010101013423050E025C9F
:1014F000000E0358D8A001D001D005D0040E025E22
:10150000000E035A04D0000E026E000E036E01504E
:101510000010D8B401D001D033D031C13DF132C177
:101520003EF100C035F101C036F1D89001013633EB
:101530003533D89001013633353335C13BF136C1EF
:101540003CF1A4EC11F0010101013B510101010149
:101550003327010101013C51010101013423090E2E
:10156000005C000E0158D8A001D001D005D0080EB3
:10157000005E000E015A04D0000E006E000E016ED7
:101580006F506E10D8B401D001D033D031C13DF1CD
:1015900032C13EF16EC035F16FC036F1D890010115
:1015A00036333533D89001013633353335C13BF10D
:1015B00036C13CF1A4EC11F0010101013B510101E4
:1015C00001013327010101013C51010101013423D3
:1015D000150E6E5C000E6F58D8A001D001D005D05A
:1015E000140E6E5E000E6F5A04D0000E6E6E000E6A
:1015F0006F6E33C13BF134C13CF1D7EC11F03BC10C
:1016000033F13CC134F133C13BF134C13CF1AAECBC
:1016100012F03BC13BF13CC13CF1F3EC10F0000E89
:10162000010101013B6F010E01013C6FB8EC10F0AC
:1016300012000101236F000E010101011E6F010163
:101640002351010101011CAF01D001D018D00101CB
:1016500001011C1F01011B1F01011A1F0101196D4E
:10166000000E01011A2301011B2301011C230101AA
:10167000236F010E010101011E6F010123510101C0
:10168000010118AF01D001D014D001010101181FD0
:101690000101171F0101161F0101156D000E010147
:1016A00016230101172301011823010E0101010175
:1016B0001E1B000E010101011F6F000E0101206FB2
:1016C000000E0101216F000E0101226F01011C516A
:1016D00019111A111B11D8B401D001D06BD001011E
:1016E000236F010E010101011D6F010123510DD076
:1016F0000101D8900101193701011A3701011B3787
:1017000001011C37010101011D2B010101011CAF69
:1017100001D001D0EDD70101D89001011F3701019F
:10172000203701012137010122370101010119513F
:1017300001010101155D010101011A5101010101C0
:101740001659010101011B51010101011759010144
:1017500001011C51010101011859D8A001D001D08B
:101760001BD001010101195101010101155F0101A6
:1017700001011A5101010101165B010101011B5117
:1017800001010101175B010101011C51010101016E
:10179000185B010101011F810101D89001011C3377
:1017A00001011B3301011A33010119330101010148
:1017B0001D2FB1D7010101011E51D8B401D001D0B4
:1017C00010D001010101221F0101211F0101201F71
:1017D00001011F6D000E01012023010121230101E0
:1017E00022231FC115F120C116F121C117F122C119
:1017F00018F100D012000101010106AF01D001D0A3
:101800001BD00101146F2D0E01010101156F0101A3
:1018100014514BEC12F001010101061F0101051FDB
:101820000101041F0101036D000E010104230101E8
:101830000523010106230AD00101146F200E0101C6
:101840000101156F010114514BEC12F00101146FED
:10185000000E01010101096F01011451090E01017E
:101860000101096501D001D001D04ED001010A0E5D
:10187000010101010925E96EEA6A0101010EEA226E
:101880000A0E01010101196F000E01011A6F000E0D
:1018900001011B6F000E01011C6F03C115F104C192
:1018A00016F105C117F106C118F1BFEC0CF00101EA
:1018B00001011551EF6E0A0E01010101196F000EB1
:1018C00001011A6F000E01011B6F000E01011C6F58
:1018D00003C115F104C116F105C117F106C118F1D4
:1018E00019EC0BF015C103F116C104F117C105F194
:1018F00018C106F101010101092B090E01010101C5
:10190000096501D001D0B2D707C109F10101010178
:10191000096701D001D001D031D001010101085186
:1019200001010101096301D001D00AD00101146F46
:101930002E0E01010101156F010114514BEC12F043
:1019400009C114F1FF0E0101142701010A0E010162
:101950001425E96EEA6A0101010EEA22EF50300F08
:1019600001010101156F4BEC12F0010101010907A2
:1019700001010101096701D001D0CFD71200010197
:101980001F6F000E010101011D6F01011F510101B7
:10199000010118AF01D001D018D001010101181FB9
:1019A0000101171F0101161F0101156D000E010134
:1019B0001623010117230101182301011F6F010ED6
:1019C000010101011D6F01011F51010101011CAF46
:1019D00001D001D010D0010101011C1F01011B1F0A
:1019E00001011A1F0101196D000E01011A230101E5
:1019F0001B2301011C2301011C5119111A111B1178
:101A0000D8B401D001D05ED001011F6F010E0101D9
:101A100001011E6F01011F510DD00101D89001017C
:101A2000193701011A3701011B3701011C37010168
:101A300001011E2B010101011CAF01D001D0EDD726
:101A400001010101195101010101155D01010101AE
:101A50001A51010101011659010101011B51010136
:101A600001011759010101011C510101010118591E
:101A7000D8A001D001D018D00101010119510101F4
:101A80000101155F010101011A5101010101165BFC
:101A9000010101011B5101010101175B010101015C
:101AA0001C5101010101185B0101D89001011C3397
:101AB00001011B3301011A33010119330101010135
:101AC0001E2FBED7010101011D51D8B401D001D094
:101AD00010D001010101181F0101171F0101161F7C
:101AE0000101156D000E01011623010117230101EB
:101AF000182315C115F116C116F117C117F118C138
:101B000018F100D012000600EACF27F1E1CF28F14A
:101B1000E2CF29F1D9CF2AF1DACF2BF1F3CF2CF193
:101B2000F4CF2DF1F6CF2EF1F7CF2FF1F8CF30F122
:101B3000F2A401D001D086D0CEEC12F0F294010EC6
:101B40006A26000E6B22000E6C22000E6D22010E22
:101B50007026000E7122000E7222000E7322745045
:101B6000705C755071587650725877507358D8A081
:101B700001D001D065D07450705E7550715A7650A6
:101B8000725A7750735A072A000100018051075C8E
:101B9000D8A001D001D002D0000E076E2A0E072473
:101BA000E96EEA6A000EEA22EF50D8B401D001D003
:101BB00002D0010E096E0A0E0724E96EEA6A000ED1
:101BC000EA22EF50D8B401D001D002D0010E086E45
:101BD0004A0E0724E96EEA6A000EEA22EF50D8B4F2
:101BE00001D001D002D0010E066E0950D8B401D048
:101BF00001D010D04C0E026E040E036E2D0E7A6EC4
:101C0000000E7B6E7AC004F07BC005F0010E7F6E83
:101C1000000E096E0850D8B401D001D006D0E80EED
:101C2000006E030E016E000E086E0650D8B401D08F
:101C300001D006D0F40E6E6E010E6F6E000E066EB1
:101C4000F1EC09F030C1F8FF2FC1F7FF2EC1F6FF0C
:101C50002DC1F4FF2CC1F3FF2BC1DAFF2AC1D9FF3C
:101C600029C1E2FF28C1E1FF27C1EAFF26C1E9FF40
:101C700025C1FBFF24C1FAFF1100000E0101010183
:101C8000106F000E0101116F000E0101126F000EA6
:101C90000101136F01010E510B110C110D11D8B47C
:101CA00001D001D06BD00101146F010E01010101BF
:101CB0000F6F010114510DD00101D89001010B37B4
:101CC00001010C3701010D3701010E37010101013E
:101CD0000F2B010101010EAF01D001D0EDD70101A1
:101CE000D8900101103701011137010112370101AC
:101CF0001337010101010B5101010101075D0101D0
:101D000001010C51010101010859010101010D51AD
:101D1000010101010959010101010E5101010101F6
:101D20000A59D8A001D001D01BD0010101010B51EB
:101D300001010101075F010101010C5101010101D4
:101D4000085B010101010D5101010101095B010164
:101D500001010E51010101010A5B01010101108124
:101D60000101D89001010E3301010D3301010C3343
:101D700001010B33010101010F2FB1D710C107F190
:101D800011C108F112C109F113C10AF100D012000A
:101D9000010E956E83920101046F330E0101010162
:101DA000056F0101045105EC12F00101046F320EC0
:101DB00001010101056F0101045105EC12F001015F
:101DC000046F280E01010101056F0101045105ECAA
:101DD00012F00101046F0E0E01010101056F0101F6
:101DE000045105EC12F00101046F010E0101010123
:101DF000056F0101045105EC12F021D00101046FBF
:101E0000070E01010101056F0101045105EC12F0FB
:101E10001ED00101046F050E01010101056F0101D2
:101E2000045105EC12F013D00101046F060E0101FC
:101E30000101056F0101045105EC12F008D0010108
:101E400001010351010ADAE0030AE3E0EDD7640E71
:101E500001010101076F000E0101086F79EC10F01C
:101E6000120000010001816701D001D004D0010EF1
:101E700000010001816F0001000181510101010198
:101E80000B6F01010C6B01010D6B01010E6B010168
:101E900078C007F1010179C008F101010101096B66
:101EA00001010A6BE5EC0FF007C103F108C104F171
:101EB00009C105F10AC106F101010651031104111E
:101EC0000511D8A401D001D00DD0010E01010101EE
:101ED000036F000E0101046F000E0101056F000E7B
:101EE0000101066F03C10BF104C10CF105C10DF135
:101EF00006C10EF1600E01010101076FE30E010141
:101F0000086F160E0101096F000E01010A6F3DEC0A
:101F10000EF007C174F008C175F009C176F00AC16E
:101F200077F012000101046F000E01010101036F3F
:101F3000010104511F0E01010101036501D001D00F
:101F400001D028D02A0E010101010325E96EEA6AB9
:101F5000000EEA22000EEF6E0A0E010101010325B8
:101F6000E96EEA6A000EEA22000EEF6E4A0E0101E7
:101F700001010325E96EEA6A000EEA22000EEF6E07
:101F800001010101032B1F0E01010101036501D0B5
:101F900001D0D8D7010E2A6E010E2C6E010E2D6EC7
:101FA000010E326E010E4B6E010E4C6E010E4D6E27
:101FB000010E4E6E010E4F6E010E506E010E526EEE
:101FC000010E546E010E586E1200000E0101010147
:101FD0000F6F000E0101106F000E0101116F000E56
:101FE0000101126F0101010107A101D001D018D038
:101FF000010101010B51010101010F270101010143
:102000000C51010101011023010101010D510101D8
:1020100001011123010101010E51010101011223EE
:102020000101D89001010B3701010C3701010D3777
:1020300001010E370101D89001010A330101093372
:10204000010108330101073301010A510711081189
:102050000911D8A401D001D0C5D70FC107F110C113
:1020600008F111C109F112C10AF100D012000101F9
:102070000101036701D001D009D001010101045120
:10208000800F01010101056F05EC12F00101010152
:102090000305D8A401D001D009D0010101010451E8
:1020A000C00F01010101056F05EC12F001010101F2
:1020B0000351020AD8A401D001D009D001010101C5
:1020C0000451940F01010101056F05EC12F00101AB
:1020D00001010351030AD8A401D001D009D00101A4
:1020E00001010451D40F01010101056F05EC12F04B
:1020F0001200000E01010101096F000E01010A6FBB
:1021000026D0000E010101010B6F000E01010C6FC2
:10211000690E010101010B5D020E01010C59D8A0ED
:1021200001D001D001D00FD0010101010B4B0C2BCC
:10213000690E010101010B5D020E01010C59D8A0CD
:1021400001D001D0F1D701010101094B0A2B010196
:102150000101075101010101095D0101010108515E
:10216000010101010A59D8A001D001D0CAD712003B
:10217000000E010101013B5D020E01013C59D8A096
:1021800001D001D007D0FF0E010101013B6F010E0C
:1021900001013C6F01013BC13DF101013CC13EF138
:1021A000D89001013E333D33D89001013E333D3399
:1021B00001013D51BB6ED890010101013C3101018B
:1021C0003E6F010101013B3101013D6F01013D31D4
:1021D000BA9AD8A001D0BA8ABA98010101013BA1EC
:1021E00001D0BA881200000E010101013B5D020E10
:1021F00001013C59D8A001D001D007D0FF0E010148
:1022000001013B6F010E01013C6F01013BC13DF13A
:1022100001013CC13EF1D89001013E333D33D890DD
:1022200001013E333D3301013D51BE6ED8900101A5
:1022300001013C3101013E6F010101013B3101010E
:102240003D6F01013D31BD9AD8A001D0BD8ABD9836
:10225000010101013BA101D0BD881200000E010166
:102260000101045D020E01010559D8A001D001D081
:1022700007D0FF0E01010101046F010E0101056F7E
:10228000010104C106F1010105C107F1D890010166
:1022900007330633D8900101073306330101065195
:1022A000BE6ED8900101010105310101076F0101E6
:1022B000010104310101066F01010631BD9AD8A068
:1022C00001D0BD8ABD980101010104A101D0BD88E2
:1022D0001200000E01010101045D020E0101055909
:1022E000D8A001D001D007D0FF0E01010101046F79
:1022F000010E0101056F010104C106F1010105C1D3
:1023000007F1D890010107330633D8900101073354
:10231000063301010651BB6ED89001010101053160
:102320000101076F0101010104310101066F010183
:102330000631BA9AD8A001D0BA8ABA98010101012F
:1023400004A101D0BA881200000E010101013F6F03
:10235000000E0101406F010101013BA101D001D03C
:102360000CD0010101013D51010101013F27010193
:1023700001013E510101010140230101D8900101F9
:102380003D3701013E370101D89001013C33010185
:102390003B33010101013C513B11D8A401D001D0D4
:1023A000DAD73FC13BF140C13CF100D0120001013E
:1023B00001013C51800A7F0F000ED8B43B5DD8A0CC
:1023C00001D001D008D0FF0E010101013B6F000ECA
:1023D00001013C6F19D0010101013C51800A810FBC
:1023E000000ED8B43B5DD8B001D001D008D0000EAB
:1023F000010101013B6FFF0E01013C6F05D03BC1A4
:102400003BF13CC13CF100D01200839405C106F1C0
:10241000F00E0101061783500F0B01010611836EA8
:10242000C4EC12F005C106F10101063BF00E0617DF
:10243000F00E0101061783500F0B01010611836E88
:10244000C4EC12F00A0E01010101076F000E010138
:10245000086F79EC10F0120010D0010103C1F6FFF3
:10246000010104C1F7FF08000101F5CF15F14BECA4
:1024700012F001010101034B042B010103C1F6FF1E
:10248000010104C1F7FF0800F5500009D8A401D0EC
:1024900001D0E3D71200838415C116F1F00E0101BB
:1024A000161783500F0B01011611836EC4EC12F046
:1024B00015C116F10101163BF00E1617F00E0101C1
:1024C000161783500F0B01011611836EC4EC12F026
:1024D00012000101186F000E01010101176F0101C7
:1024E0001851130E01010101176501D001D001D06F
:1024F0000AD001010101172B130E0101010117651B
:1025000001D001D0F6D71200000E01010101046FC5
:10251000010E0101056F2EEC11F0000E0101010109
:10252000046F010E0101056F69EC11F01200010149
:10253000036F7F0ECB6E010103510101036F040E87
:10254000CA6E010103510C0EBD6E0C0EBA6E84EC06
:1025500012F01200000E010101013B2501010101F1
:102560003B6F010E010101013C2101013C6F00D0D4
:1025700012000101036F880ED56E01010351D3ECE7
:1025800012F0F294F28A1200839669EC12F08386BC
:1025900069EC12F0839669EC12F01200FE0ED76E11
:1025A000700ED66E1200FE0ED76E700ED66E120032
:00000001FF
